{
  "contractName": "AggregatedModelRegistry",
  "abi": [
    {
      "anonymous": false,
      "inputs": [
        {
          "indexed": false,
          "internalType": "uint256",
          "name": "modelId",
          "type": "uint256"
        },
        {
          "indexed": false,
          "internalType": "string",
          "name": "ipfsHash",
          "type": "string"
        },
        {
          "indexed": false,
          "internalType": "uint256",
          "name": "version",
          "type": "uint256"
        },
        {
          "indexed": false,
          "internalType": "uint256",
          "name": "timestamp",
          "type": "uint256"
        },
        {
          "indexed": false,
          "internalType": "uint256",
          "name": "lastLocalModelId",
          "type": "uint256"
        }
      ],
      "name": "AggregatedModelRegistered",
      "type": "event"
    },
    {
      "inputs": [],
      "name": "aggregatedModelCount",
      "outputs": [
        {
          "internalType": "uint256",
          "name": "",
          "type": "uint256"
        }
      ],
      "stateMutability": "view",
      "type": "function",
      "constant": true
    },
    {
      "inputs": [
        {
          "internalType": "uint256",
          "name": "",
          "type": "uint256"
        }
      ],
      "name": "aggregatedModels",
      "outputs": [
        {
          "internalType": "string",
          "name": "ipfsHash",
          "type": "string"
        },
        {
          "internalType": "uint256",
          "name": "version",
          "type": "uint256"
        },
        {
          "internalType": "uint256",
          "name": "timestamp",
          "type": "uint256"
        },
        {
          "internalType": "uint256",
          "name": "lastLocalModelId",
          "type": "uint256"
        }
      ],
      "stateMutability": "view",
      "type": "function",
      "constant": true
    },
    {
      "inputs": [
        {
          "internalType": "string",
          "name": "ipfsHash",
          "type": "string"
        },
        {
          "internalType": "uint256",
          "name": "version",
          "type": "uint256"
        },
        {
          "internalType": "uint256",
          "name": "lastLocalModelId",
          "type": "uint256"
        }
      ],
      "name": "registerAggregatedModel",
      "outputs": [],
      "stateMutability": "nonpayable",
      "type": "function"
    },
    {
      "inputs": [
        {
          "internalType": "uint256",
          "name": "modelId",
          "type": "uint256"
        }
      ],
      "name": "getAggregatedModel",
      "outputs": [
        {
          "internalType": "string",
          "name": "",
          "type": "string"
        },
        {
          "internalType": "uint256",
          "name": "",
          "type": "uint256"
        },
        {
          "internalType": "uint256",
          "name": "",
          "type": "uint256"
        },
        {
          "internalType": "uint256",
          "name": "",
          "type": "uint256"
        }
      ],
      "stateMutability": "view",
      "type": "function",
      "constant": true
    },
    {
      "inputs": [
        {
          "internalType": "uint256",
          "name": "modelId",
          "type": "uint256"
        }
      ],
      "name": "getLastLocalModelId",
      "outputs": [
        {
          "internalType": "uint256",
          "name": "",
          "type": "uint256"
        }
      ],
      "stateMutability": "view",
      "type": "function",
      "constant": true
    }
  ],
  "bytecode": "0x608060405234801561001057600080fd5b5061097d806100206000396000f3fe608060405234801561001057600080fd5b50600436106100575760003560e01c80630542f04a1461005c578063c46bd7f91461008f578063c58c0fb9146100bf578063edd22ad6146100db578063f832b54c146100f9575b600080fd5b6100766004803603810190610071919061061c565b61012c565b604051610086949392919061068d565b60405180910390f35b6100a960048036038101906100a4919061061c565b610227565b6040516100b691906106d9565b60405180910390f35b6100d960048036038101906100d491906105b5565b610306565b005b6100e36103d7565b6040516100f091906106d9565b60405180910390f35b610113600480360381019061010e919061061c565b6103dd565b604051610123949392919061068d565b60405180910390f35b606060008060008060008087815260200190815260200160002060405180608001604052908160008201805461016190610817565b80601f016020809104026020016040519081016040528092919081815260200182805461018d90610817565b80156101da5780601f106101af576101008083540402835291602001916101da565b820191906000526020600020905b8154815290600101906020018083116101bd57829003601f168201915b505050505081526020016001820154815260200160028201548152602001600382015481525050905080600001518160200151826040015183606001519450945094509450509193509193565b60008060008084815260200190815260200160002060405180608001604052908160008201805461025790610817565b80601f016020809104026020016040519081016040528092919081815260200182805461028390610817565b80156102d05780601f106102a5576101008083540402835291602001916102d0565b820191906000526020600020905b8154815290600101906020018083116102b357829003601f168201915b50505050508152602001600182015481526020016002820154815260200160038201548152505090508060600151915050919050565b6001600081548092919061031990610849565b91905055506040518060800160405280848152602001838152602001428152602001828152506000806001548152602001908152602001600020600082015181600001908051906020019061036f929190610495565b506020820151816001015560408201518160020155606082015181600301559050507f3c7a0d6b9ebb6831832737707eba1f0106faace1c674d2f4bc45e5e225bfaacb600154848442856040516103ca9594939291906106f4565b60405180910390a1505050565b60015481565b600060205280600052604060002060009150905080600001805461040090610817565b80601f016020809104026020016040519081016040528092919081815260200182805461042c90610817565b80156104795780601f1061044e57610100808354040283529160200191610479565b820191906000526020600020905b81548152906001019060200180831161045c57829003601f168201915b5050505050908060010154908060020154908060030154905084565b8280546104a190610817565b90600052602060002090601f0160209004810192826104c3576000855561050a565b82601f106104dc57805160ff191683800117855561050a565b8280016001018555821561050a579182015b828111156105095782518255916020019190600101906104ee565b5b509050610517919061051b565b5090565b5b8082111561053457600081600090555060010161051c565b5090565b600061054b6105468461077f565b61074e565b90508281526020810184848401111561056357600080fd5b61056e8482856107d5565b509392505050565b600082601f83011261058757600080fd5b8135610597848260208601610538565b91505092915050565b6000813590506105af81610930565b92915050565b6000806000606084860312156105ca57600080fd5b600084013567ffffffffffffffff8111156105e457600080fd5b6105f086828701610576565b9350506020610601868287016105a0565b9250506040610612868287016105a0565b9150509250925092565b60006020828403121561062e57600080fd5b600061063c848285016105a0565b91505092915050565b6000610650826107af565b61065a81856107ba565b935061066a8185602086016107e4565b6106738161091f565b840191505092915050565b610687816107cb565b82525050565b600060808201905081810360008301526106a78187610645565b90506106b6602083018661067e565b6106c3604083018561067e565b6106d0606083018461067e565b95945050505050565b60006020820190506106ee600083018461067e565b92915050565b600060a082019050610709600083018861067e565b818103602083015261071b8187610645565b905061072a604083018661067e565b610737606083018561067e565b610744608083018461067e565b9695505050505050565b6000604051905081810181811067ffffffffffffffff82111715610775576107746108f0565b5b8060405250919050565b600067ffffffffffffffff82111561079a576107996108f0565b5b601f19601f8301169050602081019050919050565b600081519050919050565b600082825260208201905092915050565b6000819050919050565b82818337600083830152505050565b60005b838110156108025780820151818401526020810190506107e7565b83811115610811576000848401525b50505050565b6000600282049050600182168061082f57607f821691505b60208210811415610843576108426108c1565b5b50919050565b6000610854826107cb565b91507fffffffffffffffffffffffffffffffffffffffffffffffffffffffffffffffff82141561088757610886610892565b5b600182019050919050565b7f4e487b7100000000000000000000000000000000000000000000000000000000600052601160045260246000fd5b7f4e487b7100000000000000000000000000000000000000000000000000000000600052602260045260246000fd5b7f4e487b7100000000000000000000000000000000000000000000000000000000600052604160045260246000fd5b6000601f19601f8301169050919050565b610939816107cb565b811461094457600080fd5b5056fea2646970667358221220d7be846b2f6a49940a4db0f9bd59d879ed9605d8889ffbd7fd691f7b235fd8f964736f6c63430008000033",
  "immutableReferences": {},
  "source": "// SPDX-License-Identifier: MIT\r\npragma solidity ^0.8.0;\r\n\r\ncontract AggregatedModelRegistry {\r\n    struct AggregatedModel {\r\n        string ipfsHash;\r\n        uint256 version;\r\n        uint256 timestamp;\r\n        uint256 lastLocalModelId;\r\n    }\r\n\r\n    mapping(uint256 => AggregatedModel) public aggregatedModels;\r\n    uint256 public aggregatedModelCount;\r\n\r\n    event AggregatedModelRegistered(uint256 modelId, string ipfsHash, uint256 version, uint256 timestamp, uint256 lastLocalModelId);\r\n\r\n    function registerAggregatedModel(string memory ipfsHash, uint256 version, uint256 lastLocalModelId) public {\r\n        aggregatedModelCount++;\r\n        aggregatedModels[aggregatedModelCount] = AggregatedModel(ipfsHash, version, block.timestamp, lastLocalModelId);\r\n        emit AggregatedModelRegistered(aggregatedModelCount, ipfsHash, version, block.timestamp, lastLocalModelId);\r\n    }\r\n\r\n    function getAggregatedModel(uint256 modelId) public view returns (string memory, uint256, uint256, uint256) {\r\n        AggregatedModel memory aggregatedModel = aggregatedModels[modelId];\r\n        return (aggregatedModel.ipfsHash, aggregatedModel.version, aggregatedModel.timestamp, aggregatedModel.lastLocalModelId);\r\n    }\r\n\r\n    function getLastLocalModelId(uint256 modelId) public view returns (uint256) {\r\n        AggregatedModel memory aggregatedModel = aggregatedModels[modelId];\r\n        return aggregatedModel.lastLocalModelId;\r\n    }\r\n}\r\n",
  "sourcePath": "C:\\Users\\Sahil\\OneDrive - University of Sussex\\Dissertation\\Coding\\Blockchain_final\\contracts\\AggregatedModelRegistry.sol",
  "compiler": {
    "name": "solc",
    "version": "0.8.0+commit.c7dfd78e.Emscripten.clang"
  },
  "schemaVersion": "3.4.16",
  "updatedAt": "2024-08-16T22:43:55.372Z",
  "networkType": "ethereum",
  "devdoc": {
    "kind": "dev",
    "methods": {},
    "version": 1
  },
  "userdoc": {
    "kind": "user",
    "methods": {},
    "version": 1
  }
}