{
  "contractName": "FileMetadataRegistry",
  "abi": [
    {
      "anonymous": false,
      "inputs": [
        {
          "indexed": false,
          "internalType": "string",
          "name": "ipfsHash",
          "type": "string"
        },
        {
          "indexed": false,
          "internalType": "string",
          "name": "name",
          "type": "string"
        },
        {
          "indexed": false,
          "internalType": "string",
          "name": "description",
          "type": "string"
        },
        {
          "indexed": false,
          "internalType": "string",
          "name": "tags",
          "type": "string"
        },
        {
          "indexed": false,
          "internalType": "uint256",
          "name": "timestamp",
          "type": "uint256"
        }
      ],
      "name": "FileMetadataAdded",
      "type": "event"
    },
    {
      "inputs": [
        {
          "internalType": "uint256",
          "name": "",
          "type": "uint256"
        }
      ],
      "name": "fileHashes",
      "outputs": [
        {
          "internalType": "string",
          "name": "",
          "type": "string"
        }
      ],
      "stateMutability": "view",
      "type": "function",
      "constant": true
    },
    {
      "inputs": [
        {
          "internalType": "string",
          "name": "",
          "type": "string"
        }
      ],
      "name": "fileMetadata",
      "outputs": [
        {
          "internalType": "string",
          "name": "ipfsHash",
          "type": "string"
        },
        {
          "internalType": "string",
          "name": "name",
          "type": "string"
        },
        {
          "internalType": "string",
          "name": "description",
          "type": "string"
        },
        {
          "internalType": "string",
          "name": "tags",
          "type": "string"
        },
        {
          "internalType": "uint256",
          "name": "timestamp",
          "type": "uint256"
        }
      ],
      "stateMutability": "view",
      "type": "function",
      "constant": true
    },
    {
      "inputs": [
        {
          "internalType": "string",
          "name": "ipfsHash",
          "type": "string"
        },
        {
          "internalType": "string",
          "name": "name",
          "type": "string"
        },
        {
          "internalType": "string",
          "name": "description",
          "type": "string"
        },
        {
          "internalType": "string",
          "name": "tags",
          "type": "string"
        }
      ],
      "name": "addFileMetadata",
      "outputs": [],
      "stateMutability": "nonpayable",
      "type": "function"
    },
    {
      "inputs": [
        {
          "internalType": "string",
          "name": "tag",
          "type": "string"
        }
      ],
      "name": "searchFilesByTag",
      "outputs": [
        {
          "internalType": "string[]",
          "name": "",
          "type": "string[]"
        }
      ],
      "stateMutability": "view",
      "type": "function",
      "constant": true
    },
    {
      "inputs": [
        {
          "internalType": "string",
          "name": "ipfsHash",
          "type": "string"
        }
      ],
      "name": "getFileMetadata",
      "outputs": [
        {
          "internalType": "string",
          "name": "",
          "type": "string"
        },
        {
          "internalType": "string",
          "name": "",
          "type": "string"
        },
        {
          "internalType": "string",
          "name": "",
          "type": "string"
        },
        {
          "internalType": "uint256",
          "name": "",
          "type": "uint256"
        }
      ],
      "stateMutability": "view",
      "type": "function",
      "constant": true
    }
  ],
  "bytecode": "0x608060405234801561001057600080fd5b5061138e806100206000396000f3fe608060405234801561001057600080fd5b50600436106100575760003560e01c80631f9850031461005c57806372c6a94e1461008f578063898aca42146100c3578063c110f4c9146100df578063fbb98aae1461010f575b600080fd5b61007660048036038101906100719190610cd3565b61013f565b604051610086949392919061109b565b60405180910390f35b6100a960048036038101906100a49190610cd3565b6103e8565b6040516100ba95949392919061102c565b60405180910390f35b6100dd60048036038101906100d89190610d14565b610654565b005b6100f960048036038101906100f49190610dd7565b61079b565b604051610106919061100a565b60405180910390f35b61012960048036038101906101249190610cd3565b610847565b6040516101369190610fe8565b60405180910390f35b60608060606000806000866040516101579190610fba565b90815260200160405180910390206040518060a001604052908160008201805461018090611228565b80601f01602080910402602001604051908101604052809291908181526020018280546101ac90611228565b80156101f95780601f106101ce576101008083540402835291602001916101f9565b820191906000526020600020905b8154815290600101906020018083116101dc57829003601f168201915b5050505050815260200160018201805461021290611228565b80601f016020809104026020016040519081016040528092919081815260200182805461023e90611228565b801561028b5780601f106102605761010080835404028352916020019161028b565b820191906000526020600020905b81548152906001019060200180831161026e57829003601f168201915b505050505081526020016002820180546102a490611228565b80601f01602080910402602001604051908101604052809291908181526020018280546102d090611228565b801561031d5780601f106102f25761010080835404028352916020019161031d565b820191906000526020600020905b81548152906001019060200180831161030057829003601f168201915b5050505050815260200160038201805461033690611228565b80601f016020809104026020016040519081016040528092919081815260200182805461036290611228565b80156103af5780601f10610384576101008083540402835291602001916103af565b820191906000526020600020905b81548152906001019060200180831161039257829003601f168201915b50505050508152602001600482015481525050905080602001518160400151826060015183608001519450945094509450509193509193565b60008180516020810182018051848252602083016020850120818352809550505050505060009150905080600001805461042190611228565b80601f016020809104026020016040519081016040528092919081815260200182805461044d90611228565b801561049a5780601f1061046f5761010080835404028352916020019161049a565b820191906000526020600020905b81548152906001019060200180831161047d57829003601f168201915b5050505050908060010180546104af90611228565b80601f01602080910402602001604051908101604052809291908181526020018280546104db90611228565b80156105285780601f106104fd57610100808354040283529160200191610528565b820191906000526020600020905b81548152906001019060200180831161050b57829003601f168201915b50505050509080600201805461053d90611228565b80601f016020809104026020016040519081016040528092919081815260200182805461056990611228565b80156105b65780601f1061058b576101008083540402835291602001916105b6565b820191906000526020600020905b81548152906001019060200180831161059957829003601f168201915b5050505050908060030180546105cb90611228565b80601f01602080910402602001604051908101604052809291908181526020018280546105f790611228565b80156106445780601f1061061957610100808354040283529160200191610644565b820191906000526020600020905b81548152906001019060200180831161062757829003601f168201915b5050505050908060040154905085565b6040518060a001604052808581526020018481526020018381526020018281526020014281525060008560405161068b9190610fba565b908152602001604051809103902060008201518160000190805190602001906106b5929190610bb3565b5060208201518160010190805190602001906106d2929190610bb3565b5060408201518160020190805190602001906106ef929190610bb3565b50606082015181600301908051906020019061070c929190610bb3565b5060808201518160040155905050600184908060018154018082558091505060019003906000526020600020016000909190919091509080519060200190610755929190610bb3565b507fa60e5174cfa38e1ccd2090f0b7569ccbbb56a0280c45462a31284e2f0c71d569848484844260405161078d95949392919061102c565b60405180910390a150505050565b600181815481106107ab57600080fd5b9060005260206000200160009150905080546107c690611228565b80601f01602080910402602001604051908101604052809291908181526020018280546107f290611228565b801561083f5780601f106108145761010080835404028352916020019161083f565b820191906000526020600020905b81548152906001019060200180831161082257829003601f168201915b505050505081565b60606000805b600180549050811015610933578360405160200161086b9190610fba565b604051602081830303815290604052805190602001206000600183815481106108bd577f4e487b7100000000000000000000000000000000000000000000000000000000600052603260045260246000fd5b906000526020600020016040516108d49190610fd1565b90815260200160405180910390206003016040516020016108f59190610fd1565b60405160208183030381529060405280519060200120141561092057818061091c9061125a565b9250505b808061092b9061125a565b91505061084d565b5060008167ffffffffffffffff811115610976577f4e487b7100000000000000000000000000000000000000000000000000000000600052604160045260246000fd5b6040519080825280602002602001820160405280156109a957816020015b60608152602001906001900390816109945790505b5090506000805b600180549050811015610ba757856040516020016109ce9190610fba565b60405160208183030381529060405280519060200120600060018381548110610a20577f4e487b7100000000000000000000000000000000000000000000000000000000600052603260045260246000fd5b90600052602060002001604051610a379190610fd1565b9081526020016040518091039020600301604051602001610a589190610fd1565b604051602081830303815290604052805190602001201415610b945760018181548110610aae577f4e487b7100000000000000000000000000000000000000000000000000000000600052603260045260246000fd5b906000526020600020018054610ac390611228565b80601f0160208091040260200160405190810160405280929190818152602001828054610aef90611228565b8015610b3c5780601f10610b1157610100808354040283529160200191610b3c565b820191906000526020600020905b815481529060010190602001808311610b1f57829003601f168201915b5050505050838381518110610b7a577f4e487b7100000000000000000000000000000000000000000000000000000000600052603260045260246000fd5b60200260200101819052508180610b909061125a565b9250505b8080610b9f9061125a565b9150506109b0565b50819350505050919050565b828054610bbf90611228565b90600052602060002090601f016020900481019282610be15760008555610c28565b82601f10610bfa57805160ff1916838001178555610c28565b82800160010185558215610c28579182015b82811115610c27578251825591602001919060010190610c0c565b5b509050610c359190610c39565b5090565b5b80821115610c52576000816000905550600101610c3a565b5090565b6000610c69610c6484611126565b6110f5565b905082815260208101848484011115610c8157600080fd5b610c8c8482856111e6565b509392505050565b600082601f830112610ca557600080fd5b8135610cb5848260208601610c56565b91505092915050565b600081359050610ccd81611341565b92915050565b600060208284031215610ce557600080fd5b600082013567ffffffffffffffff811115610cff57600080fd5b610d0b84828501610c94565b91505092915050565b60008060008060808587031215610d2a57600080fd5b600085013567ffffffffffffffff811115610d4457600080fd5b610d5087828801610c94565b945050602085013567ffffffffffffffff811115610d6d57600080fd5b610d7987828801610c94565b935050604085013567ffffffffffffffff811115610d9657600080fd5b610da287828801610c94565b925050606085013567ffffffffffffffff811115610dbf57600080fd5b610dcb87828801610c94565b91505092959194509250565b600060208284031215610de957600080fd5b6000610df784828501610cbe565b91505092915050565b6000610e0c8383610e89565b905092915050565b6000610e1f8261117b565b610e29818561119e565b935083602082028501610e3b85611156565b8060005b85811015610e775784840389528151610e588582610e00565b9450610e6383611191565b925060208a01995050600181019050610e3f565b50829750879550505050505092915050565b6000610e9482611186565b610e9e81856111af565b9350610eae8185602086016111f5565b610eb781611330565b840191505092915050565b6000610ecd82611186565b610ed781856111c0565b9350610ee78185602086016111f5565b610ef081611330565b840191505092915050565b6000610f0682611186565b610f1081856111d1565b9350610f208185602086016111f5565b80840191505092915050565b60008154610f3981611228565b610f4381866111d1565b94506001821660008114610f5e5760018114610f6f57610fa2565b60ff19831686528186019350610fa2565b610f7885611166565b60005b83811015610f9a57815481890152600182019150602081019050610f7b565b838801955050505b50505092915050565b610fb4816111dc565b82525050565b6000610fc68284610efb565b915081905092915050565b6000610fdd8284610f2c565b915081905092915050565b600060208201905081810360008301526110028184610e14565b905092915050565b600060208201905081810360008301526110248184610ec2565b905092915050565b600060a08201905081810360008301526110468188610ec2565b9050818103602083015261105a8187610ec2565b9050818103604083015261106e8186610ec2565b905081810360608301526110828185610ec2565b90506110916080830184610fab565b9695505050505050565b600060808201905081810360008301526110b58187610ec2565b905081810360208301526110c98186610ec2565b905081810360408301526110dd8185610ec2565b90506110ec6060830184610fab565b95945050505050565b6000604051905081810181811067ffffffffffffffff8211171561111c5761111b611301565b5b8060405250919050565b600067ffffffffffffffff82111561114157611140611301565b5b601f19601f8301169050602081019050919050565b6000819050602082019050919050565b60008190508160005260206000209050919050565b600081519050919050565b600081519050919050565b6000602082019050919050565b600082825260208201905092915050565b600082825260208201905092915050565b600082825260208201905092915050565b600081905092915050565b6000819050919050565b82818337600083830152505050565b60005b838110156112135780820151818401526020810190506111f8565b83811115611222576000848401525b50505050565b6000600282049050600182168061124057607f821691505b60208210811415611254576112536112d2565b5b50919050565b6000611265826111dc565b91507fffffffffffffffffffffffffffffffffffffffffffffffffffffffffffffffff821415611298576112976112a3565b5b600182019050919050565b7f4e487b7100000000000000000000000000000000000000000000000000000000600052601160045260246000fd5b7f4e487b7100000000000000000000000000000000000000000000000000000000600052602260045260246000fd5b7f4e487b7100000000000000000000000000000000000000000000000000000000600052604160045260246000fd5b6000601f19601f8301169050919050565b61134a816111dc565b811461135557600080fd5b5056fea2646970667358221220aedea1291aef09f084e1ce77ba95bcdf9be393cbbb2708b51558b9662023fcd164736f6c63430008000033",
  "immutableReferences": {},
  "source": "// SPDX-License-Identifier: MIT\r\npragma solidity ^0.8.0;\r\n\r\ncontract FileMetadataRegistry {\r\n    struct FileMetadata {\r\n        string ipfsHash;\r\n        string name;\r\n        string description;\r\n        string tags;\r\n        uint256 timestamp;\r\n    }\r\n\r\n    mapping(string => FileMetadata) public fileMetadata;\r\n    string[] public fileHashes;\r\n\r\n    event FileMetadataAdded(string ipfsHash, string name, string description, string tags, uint256 timestamp);\r\n\r\n    function addFileMetadata(string memory ipfsHash, string memory name, string memory description, string memory tags) public {\r\n        fileMetadata[ipfsHash] = FileMetadata(ipfsHash, name, description, tags, block.timestamp);\r\n        fileHashes.push(ipfsHash);\r\n        emit FileMetadataAdded(ipfsHash, name, description, tags, block.timestamp);\r\n    }\r\n\r\n    function searchFilesByTag(string memory tag) public view returns (string[] memory) {\r\n        uint256 count = 0;\r\n        for (uint i = 0; i < fileHashes.length; i++) {\r\n            if (keccak256(abi.encodePacked(fileMetadata[fileHashes[i]].tags)) == keccak256(abi.encodePacked(tag))) {\r\n                count++;\r\n            }\r\n        }\r\n\r\n        string[] memory results = new string[](count);\r\n        uint256 index = 0;\r\n        for (uint i = 0; i < fileHashes.length; i++) {\r\n            if (keccak256(abi.encodePacked(fileMetadata[fileHashes[i]].tags)) == keccak256(abi.encodePacked(tag))) {\r\n                results[index] = fileHashes[i];\r\n                index++;\r\n            }\r\n        }\r\n        return results;\r\n    }\r\n\r\n    function getFileMetadata(string memory ipfsHash) public view returns (string memory, string memory, string memory, uint256) {\r\n        FileMetadata memory metadata = fileMetadata[ipfsHash];\r\n        return (metadata.name, metadata.description, metadata.tags, metadata.timestamp);\r\n    }\r\n}\r\n",
  "sourcePath": "C:\\Users\\Sahil\\OneDrive - University of Sussex\\Dissertation\\Coding\\Blockchain_final\\contracts\\FileMetadataRegistry.sol",
  "compiler": {
    "name": "solc",
    "version": "0.8.0+commit.c7dfd78e.Emscripten.clang"
  },
  "schemaVersion": "3.4.16",
  "updatedAt": "2024-08-16T22:43:55.382Z",
  "networkType": "ethereum",
  "devdoc": {
    "kind": "dev",
    "methods": {},
    "version": 1
  },
  "userdoc": {
    "kind": "user",
    "methods": {},
    "version": 1
  }
}