{
  "contractName": "LocalModelRegistry",
  "abi": [
    {
      "anonymous": false,
      "inputs": [
        {
          "indexed": false,
          "internalType": "uint256",
          "name": "modelId",
          "type": "uint256"
        },
        {
          "indexed": false,
          "internalType": "string",
          "name": "ipfsHash",
          "type": "string"
        },
        {
          "indexed": false,
          "internalType": "address",
          "name": "contributor",
          "type": "address"
        },
        {
          "indexed": false,
          "internalType": "uint256",
          "name": "timestamp",
          "type": "uint256"
        }
      ],
      "name": "LocalModelRegistered",
      "type": "event"
    },
    {
      "inputs": [
        {
          "internalType": "uint256",
          "name": "",
          "type": "uint256"
        }
      ],
      "name": "localModels",
      "outputs": [
        {
          "internalType": "string",
          "name": "ipfsHash",
          "type": "string"
        },
        {
          "internalType": "address",
          "name": "contributor",
          "type": "address"
        },
        {
          "internalType": "uint256",
          "name": "timestamp",
          "type": "uint256"
        }
      ],
      "stateMutability": "view",
      "type": "function",
      "constant": true
    },
    {
      "inputs": [],
      "name": "modelCount",
      "outputs": [
        {
          "internalType": "uint256",
          "name": "",
          "type": "uint256"
        }
      ],
      "stateMutability": "view",
      "type": "function",
      "constant": true
    },
    {
      "inputs": [
        {
          "internalType": "string",
          "name": "ipfsHash",
          "type": "string"
        },
        {
          "internalType": "address",
          "name": "contributor",
          "type": "address"
        }
      ],
      "name": "registerLocalModel",
      "outputs": [],
      "stateMutability": "nonpayable",
      "type": "function"
    },
    {
      "inputs": [
        {
          "internalType": "uint256",
          "name": "modelId",
          "type": "uint256"
        }
      ],
      "name": "getLocalModel",
      "outputs": [
        {
          "internalType": "string",
          "name": "",
          "type": "string"
        },
        {
          "internalType": "address",
          "name": "",
          "type": "address"
        },
        {
          "internalType": "uint256",
          "name": "",
          "type": "uint256"
        }
      ],
      "stateMutability": "view",
      "type": "function",
      "constant": true
    },
    {
      "inputs": [],
      "name": "getLocalModelCount",
      "outputs": [
        {
          "internalType": "uint256",
          "name": "",
          "type": "uint256"
        }
      ],
      "stateMutability": "view",
      "type": "function",
      "constant": true
    },
    {
      "inputs": [
        {
          "internalType": "address",
          "name": "contributor",
          "type": "address"
        }
      ],
      "name": "getLatestModelHash",
      "outputs": [
        {
          "internalType": "string",
          "name": "",
          "type": "string"
        }
      ],
      "stateMutability": "view",
      "type": "function",
      "constant": true
    }
  ],
  "bytecode": "0x608060405234801561001057600080fd5b50610b64806100206000396000f3fe608060405234801561001057600080fd5b50600436106100625760003560e01c8063487d349914610067578063665b39af146100995780636d761468146100b75780638ed65681146100e9578063a82b3e1214610105578063c6a645fe14610135575b600080fd5b610081600480360381019061007c919061077b565b610153565b6040516100909392919061081d565b60405180910390f35b6100a1610225565b6040516100ae919061085b565b60405180910390f35b6100d160048036038101906100cc919061077b565b61022f565b6040516100e09392919061081d565b60405180910390f35b61010360048036038101906100fe9190610727565b610364565b005b61011f600480360381019061011a91906106fe565b610475565b60405161012c91906107fb565b60405180910390f35b61013d6105c3565b60405161014a919061085b565b60405180910390f35b6000602052806000526040600020600091509050806000018054610176906109e7565b80601f01602080910402602001604051908101604052809291908181526020018280546101a2906109e7565b80156101ef5780601f106101c4576101008083540402835291602001916101ef565b820191906000526020600020905b8154815290600101906020018083116101d257829003601f168201915b5050505050908060010160009054906101000a900473ffffffffffffffffffffffffffffffffffffffff16908060020154905083565b6000600154905090565b60606000806000806000868152602001908152602001600020604051806060016040529081600082018054610263906109e7565b80601f016020809104026020016040519081016040528092919081815260200182805461028f906109e7565b80156102dc5780601f106102b1576101008083540402835291602001916102dc565b820191906000526020600020905b8154815290600101906020018083116102bf57829003601f168201915b505050505081526020016001820160009054906101000a900473ffffffffffffffffffffffffffffffffffffffff1673ffffffffffffffffffffffffffffffffffffffff1673ffffffffffffffffffffffffffffffffffffffff1681526020016002820154815250509050806000015181602001518260400151935093509350509193909250565b6001600081548092919061037790610a19565b919050555060405180606001604052808381526020018273ffffffffffffffffffffffffffffffffffffffff16815260200142815250600080600154815260200190815260200160002060008201518160000190805190602001906103dd9291906105c9565b5060208201518160010160006101000a81548173ffffffffffffffffffffffffffffffffffffffff021916908373ffffffffffffffffffffffffffffffffffffffff160217905550604082015181600201559050507fe2d28cab340f5ffe06009e9c82680c963a8aab1c9bd08d74532ca2cacc5458f66001548383426040516104699493929190610876565b60405180910390a15050565b6060600060015490505b60008111156105aa578273ffffffffffffffffffffffffffffffffffffffff1660008083815260200190815260200160002060010160009054906101000a900473ffffffffffffffffffffffffffffffffffffffff1673ffffffffffffffffffffffffffffffffffffffff161415610597576000808281526020019081526020016000206000018054610511906109e7565b80601f016020809104026020016040519081016040528092919081815260200182805461053d906109e7565b801561058a5780601f1061055f5761010080835404028352916020019161058a565b820191906000526020600020905b81548152906001019060200180831161056d57829003601f168201915b50505050509150506105be565b80806105a2906109bd565b91505061047f565b506040518060200160405280600081525090505b919050565b60015481565b8280546105d5906109e7565b90600052602060002090601f0160209004810192826105f7576000855561063e565b82601f1061061057805160ff191683800117855561063e565b8280016001018555821561063e579182015b8281111561063d578251825591602001919060010190610622565b5b50905061064b919061064f565b5090565b5b80821115610668576000816000905550600101610650565b5090565b600061067f61067a846108f3565b6108c2565b90508281526020810184848401111561069757600080fd5b6106a284828561097b565b509392505050565b6000813590506106b981610b00565b92915050565b600082601f8301126106d057600080fd5b81356106e084826020860161066c565b91505092915050565b6000813590506106f881610b17565b92915050565b60006020828403121561071057600080fd5b600061071e848285016106aa565b91505092915050565b6000806040838503121561073a57600080fd5b600083013567ffffffffffffffff81111561075457600080fd5b610760858286016106bf565b9250506020610771858286016106aa565b9150509250929050565b60006020828403121561078d57600080fd5b600061079b848285016106e9565b91505092915050565b6107ad8161093f565b82525050565b60006107be82610923565b6107c8818561092e565b93506107d881856020860161098a565b6107e181610aef565b840191505092915050565b6107f581610971565b82525050565b6000602082019050818103600083015261081581846107b3565b905092915050565b6000606082019050818103600083015261083781866107b3565b905061084660208301856107a4565b61085360408301846107ec565b949350505050565b600060208201905061087060008301846107ec565b92915050565b600060808201905061088b60008301876107ec565b818103602083015261089d81866107b3565b90506108ac60408301856107a4565b6108b960608301846107ec565b95945050505050565b6000604051905081810181811067ffffffffffffffff821117156108e9576108e8610ac0565b5b8060405250919050565b600067ffffffffffffffff82111561090e5761090d610ac0565b5b601f19601f8301169050602081019050919050565b600081519050919050565b600082825260208201905092915050565b600061094a82610951565b9050919050565b600073ffffffffffffffffffffffffffffffffffffffff82169050919050565b6000819050919050565b82818337600083830152505050565b60005b838110156109a857808201518184015260208101905061098d565b838111156109b7576000848401525b50505050565b60006109c882610971565b915060008214156109dc576109db610a62565b5b600182039050919050565b600060028204905060018216806109ff57607f821691505b60208210811415610a1357610a12610a91565b5b50919050565b6000610a2482610971565b91507fffffffffffffffffffffffffffffffffffffffffffffffffffffffffffffffff821415610a5757610a56610a62565b5b600182019050919050565b7f4e487b7100000000000000000000000000000000000000000000000000000000600052601160045260246000fd5b7f4e487b7100000000000000000000000000000000000000000000000000000000600052602260045260246000fd5b7f4e487b7100000000000000000000000000000000000000000000000000000000600052604160045260246000fd5b6000601f19601f8301169050919050565b610b098161093f565b8114610b1457600080fd5b50565b610b2081610971565b8114610b2b57600080fd5b5056fea2646970667358221220a9a37b9c9149b9736cfa42cdcd012d614b231a0007ac7a020a83095fd6a0804d64736f6c63430008000033",
  "immutableReferences": {},
  "source": "// SPDX-License-Identifier: MIT\r\npragma solidity ^0.8.0;\r\n\r\ncontract LocalModelRegistry {\r\n    struct LocalModel {\r\n        string ipfsHash;\r\n        address contributor;\r\n        uint256 timestamp;\r\n    }\r\n\r\n    mapping(uint256 => LocalModel) public localModels;\r\n    uint256 public modelCount;\r\n\r\n    event LocalModelRegistered(uint256 modelId, string ipfsHash, address contributor, uint256 timestamp);\r\n\r\n    function registerLocalModel(string memory ipfsHash, address contributor) public {\r\n        modelCount++;\r\n        localModels[modelCount] = LocalModel(ipfsHash, contributor, block.timestamp);\r\n        emit LocalModelRegistered(modelCount, ipfsHash, contributor, block.timestamp);\r\n    }\r\n\r\n    function getLocalModel(uint256 modelId) public view returns (string memory, address, uint256) {\r\n        LocalModel memory model = localModels[modelId];\r\n        return (model.ipfsHash, model.contributor, model.timestamp);\r\n    }\r\n\r\n    function getLocalModelCount() public view returns (uint256) {\r\n        return modelCount;\r\n    }\r\n\r\n    function getLatestModelHash(address contributor) public view returns (string memory) {\r\n        for (uint256 i = modelCount; i > 0; i--) {\r\n            if (localModels[i].contributor == contributor) {\r\n                return localModels[i].ipfsHash;\r\n            }\r\n        }\r\n        return \"\";\r\n    }\r\n}\r\n",
  "sourcePath": "C:\\Users\\Sahil\\OneDrive - University of Sussex\\Dissertation\\Coding\\Blockchain_final\\contracts\\LocalModelRegistry.sol",
  "compiler": {
    "name": "solc",
    "version": "0.8.0+commit.c7dfd78e.Emscripten.clang"
  },
  "schemaVersion": "3.4.16",
  "updatedAt": "2024-08-16T22:43:55.367Z",
  "networkType": "ethereum",
  "devdoc": {
    "kind": "dev",
    "methods": {},
    "version": 1
  },
  "userdoc": {
    "kind": "user",
    "methods": {},
    "version": 1
  }
}