{
  "contractName": "ReputationSystem",
  "abi": [
    {
      "anonymous": false,
      "inputs": [
        {
          "indexed": false,
          "internalType": "address",
          "name": "contributor",
          "type": "address"
        },
        {
          "indexed": false,
          "internalType": "uint256",
          "name": "points",
          "type": "uint256"
        }
      ],
      "name": "ContributorRewarded",
      "type": "event"
    },
    {
      "inputs": [
        {
          "internalType": "address",
          "name": "",
          "type": "address"
        }
      ],
      "name": "reputation",
      "outputs": [
        {
          "internalType": "uint256",
          "name": "",
          "type": "uint256"
        }
      ],
      "stateMutability": "view",
      "type": "function",
      "constant": true
    },
    {
      "inputs": [
        {
          "internalType": "address",
          "name": "contributor",
          "type": "address"
        },
        {
          "internalType": "uint256",
          "name": "points",
          "type": "uint256"
        }
      ],
      "name": "rewardContributor",
      "outputs": [],
      "stateMutability": "nonpayable",
      "type": "function"
    },
    {
      "inputs": [
        {
          "internalType": "address",
          "name": "contributor",
          "type": "address"
        }
      ],
      "name": "getReputation",
      "outputs": [
        {
          "internalType": "uint256",
          "name": "",
          "type": "uint256"
        }
      ],
      "stateMutability": "view",
      "type": "function",
      "constant": true
    }
  ],
  "bytecode": "0x608060405234801561001057600080fd5b506103ca806100206000396000f3fe608060405234801561001057600080fd5b50600436106100415760003560e01c80633b15a398146100465780639c89a0e214610062578063b9f7945114610092575b600080fd5b610060600480360381019061005b9190610207565b6100c2565b005b61007c600480360381019061007791906101de565b610154565b604051610089919061028a565b60405180910390f35b6100ac60048036038101906100a791906101de565b61019c565b6040516100b9919061028a565b60405180910390f35b806000808473ffffffffffffffffffffffffffffffffffffffff1673ffffffffffffffffffffffffffffffffffffffff168152602001908152602001600020600082825461011091906102a5565b925050819055507f8565ff6669c04439af2c80b16abe9af84f3442c16849ae6b1eb657cb268bf4db8282604051610148929190610261565b60405180910390a15050565b60008060008373ffffffffffffffffffffffffffffffffffffffff1673ffffffffffffffffffffffffffffffffffffffff168152602001908152602001600020549050919050565b60006020528060005260406000206000915090505481565b6000813590506101c381610366565b92915050565b6000813590506101d88161037d565b92915050565b6000602082840312156101f057600080fd5b60006101fe848285016101b4565b91505092915050565b6000806040838503121561021a57600080fd5b6000610228858286016101b4565b9250506020610239858286016101c9565b9150509250929050565b61024c816102fb565b82525050565b61025b8161032d565b82525050565b60006040820190506102766000830185610243565b6102836020830184610252565b9392505050565b600060208201905061029f6000830184610252565b92915050565b60006102b08261032d565b91506102bb8361032d565b9250827fffffffffffffffffffffffffffffffffffffffffffffffffffffffffffffffff038211156102f0576102ef610337565b5b828201905092915050565b60006103068261030d565b9050919050565b600073ffffffffffffffffffffffffffffffffffffffff82169050919050565b6000819050919050565b7f4e487b7100000000000000000000000000000000000000000000000000000000600052601160045260246000fd5b61036f816102fb565b811461037a57600080fd5b50565b6103868161032d565b811461039157600080fd5b5056fea26469706673582212202c595c9cc1eef4492b365be43bc155b1e97289b771af480828648245da7d009164736f6c63430008000033",
  "immutableReferences": {},
  "source": "// SPDX-License-Identifier: MIT\r\npragma solidity ^0.8.0;\r\n\r\ncontract ReputationSystem {\r\n    mapping(address => uint256) public reputation;\r\n\r\n    event ContributorRewarded(address contributor, uint256 points);\r\n\r\n    function rewardContributor(address contributor, uint256 points) public {\r\n        reputation[contributor] += points;\r\n        emit ContributorRewarded(contributor, points);\r\n    }\r\n\r\n    function getReputation(address contributor) public view returns (uint256) {\r\n        return reputation[contributor];\r\n    }\r\n}\r\n",
  "sourcePath": "C:\\Users\\Sahil\\OneDrive - University of Sussex\\Dissertation\\Coding\\Blockchain_final\\contracts\\ReputationSystem.sol",
  "compiler": {
    "name": "solc",
    "version": "0.8.0+commit.c7dfd78e.Emscripten.clang"
  },
  "schemaVersion": "3.4.16",
  "updatedAt": "2024-08-16T22:43:55.375Z",
  "networkType": "ethereum",
  "devdoc": {
    "kind": "dev",
    "methods": {},
    "version": 1
  },
  "userdoc": {
    "kind": "user",
    "methods": {},
    "version": 1
  }
}